{
  "contractName": "FlightSuretyData",
  "abi": [
    {
      "inputs": [],
      "payable": false,
      "stateMutability": "nonpayable",
      "type": "constructor"
    },
    {
      "payable": true,
      "stateMutability": "payable",
      "type": "fallback"
    },
    {
      "constant": true,
      "inputs": [],
      "name": "isOperational",
      "outputs": [
        {
          "name": "",
          "type": "bool"
        }
      ],
      "payable": false,
      "stateMutability": "view",
      "type": "function"
    },
    {
      "constant": false,
      "inputs": [
        {
          "name": "mode",
          "type": "bool"
        }
      ],
      "name": "setOperatingStatus",
      "outputs": [],
      "payable": false,
      "stateMutability": "nonpayable",
      "type": "function"
    },
    {
      "constant": false,
      "inputs": [
        {
          "name": "airline",
          "type": "address"
        }
      ],
      "name": "getInsuredPassenger_amount",
      "outputs": [
        {
          "name": "",
          "type": "address"
        },
        {
          "name": "",
          "type": "uint256"
        }
      ],
      "payable": false,
      "stateMutability": "nonpayable",
      "type": "function"
    },
    {
      "constant": false,
      "inputs": [
        {
          "name": "account",
          "type": "address"
        }
      ],
      "name": "isAirline",
      "outputs": [
        {
          "name": "",
          "type": "bool"
        }
      ],
      "payable": false,
      "stateMutability": "nonpayable",
      "type": "function"
    },
    {
      "constant": false,
      "inputs": [
        {
          "name": "account",
          "type": "address"
        }
      ],
      "name": "getAirlineOperatingStatus",
      "outputs": [
        {
          "name": "",
          "type": "bool"
        }
      ],
      "payable": false,
      "stateMutability": "nonpayable",
      "type": "function"
    },
    {
      "constant": false,
      "inputs": [
        {
          "name": "airline",
          "type": "address"
        }
      ],
      "name": "registerAirline",
      "outputs": [
        {
          "name": "success",
          "type": "bool"
        },
        {
          "name": "votes",
          "type": "uint256"
        }
      ],
      "payable": false,
      "stateMutability": "nonpayable",
      "type": "function"
    },
    {
      "constant": false,
      "inputs": [
        {
          "name": "airline",
          "type": "address"
        },
        {
          "name": "airline_vote",
          "type": "bool"
        }
      ],
      "name": "approveAirlineRegistration",
      "outputs": [],
      "payable": false,
      "stateMutability": "nonpayable",
      "type": "function"
    },
    {
      "constant": false,
      "inputs": [
        {
          "name": "passenger",
          "type": "address"
        }
      ],
      "name": "getUserCredit",
      "outputs": [
        {
          "name": "",
          "type": "uint256"
        }
      ],
      "payable": false,
      "stateMutability": "nonpayable",
      "type": "function"
    },
    {
      "constant": false,
      "inputs": [
        {
          "name": "airline",
          "type": "address"
        }
      ],
      "name": "buy",
      "outputs": [],
      "payable": true,
      "stateMutability": "payable",
      "type": "function"
    },
    {
      "constant": false,
      "inputs": [
        {
          "name": "airline",
          "type": "address"
        },
        {
          "name": "amount",
          "type": "uint256"
        }
      ],
      "name": "creditInsurees",
      "outputs": [],
      "payable": false,
      "stateMutability": "nonpayable",
      "type": "function"
    },
    {
      "constant": false,
      "inputs": [],
      "name": "pay",
      "outputs": [],
      "payable": false,
      "stateMutability": "nonpayable",
      "type": "function"
    },
    {
      "constant": false,
      "inputs": [],
      "name": "fund",
      "outputs": [],
      "payable": true,
      "stateMutability": "payable",
      "type": "function"
    }
  ],
  "bytecode": "0x60806040526001600060146101000a81548160ff02191690831515021790555060008060156101000a81548160ff02191690831515021790555060006040519080825280602002602001820160405280156200006a5781602001602082028038833980820191505090505b506005908051906020019062000082929190620000d7565b503480156200009057600080fd5b50336000806101000a81548173ffffffffffffffffffffffffffffffffffffffff021916908373ffffffffffffffffffffffffffffffffffffffff160217905550620001ac565b82805482825590600052602060002090810192821562000153579160200282015b82811115620001525782518260006101000a81548173ffffffffffffffffffffffffffffffffffffffff021916908373ffffffffffffffffffffffffffffffffffffffff16021790555091602001919060010190620000f8565b5b50905062000162919062000166565b5090565b620001a991905b80821115620001a557600081816101000a81549073ffffffffffffffffffffffffffffffffffffffff0219169055506001016200016d565b5090565b90565b611fba80620001bc6000396000f3006080604052600436106100ba576000357c0100000000000000000000000000000000000000000000000000000000900463ffffffff1680630e248a11146100c4578063110466ed1461011f5780631b9265b81461014e5780631f4cea0c1461016557806367efbf15146101ef578063b60d42881461023e578063bdfd987714610248578063cb4f3acb146102aa578063cd905dff14610305578063dad6f0dc14610334578063ebc274f01461038b578063f088d547146103d8575b6100c261040e565b005b3480156100d057600080fd5b50610105600480360381019080803573ffffffffffffffffffffffffffffffffffffffff1690602001909291905050506106b4565b604051808215151515815260200191505060405180910390f35b34801561012b57600080fd5b5061014c6004803603810190808035151590602001909291905050506107d7565b005b34801561015a57600080fd5b506101636108b8565b005b34801561017157600080fd5b506101a6600480360381019080803573ffffffffffffffffffffffffffffffffffffffff169060200190929190505050610ae9565b604051808373ffffffffffffffffffffffffffffffffffffffff1673ffffffffffffffffffffffffffffffffffffffff1681526020018281526020019250505060405180910390f35b3480156101fb57600080fd5b5061023c600480360381019080803573ffffffffffffffffffffffffffffffffffffffff169060200190929190803515159060200190929190505050610c45565b005b61024661040e565b005b34801561025457600080fd5b50610289600480360381019080803573ffffffffffffffffffffffffffffffffffffffff169060200190929190505050611089565b60405180831515151581526020018281526020019250505060405180910390f35b3480156102b657600080fd5b506102eb600480360381019080803573ffffffffffffffffffffffffffffffffffffffff16906020019092919050505061164c565b604051808215151515815260200191505060405180910390f35b34801561031157600080fd5b5061031a61174e565b604051808215151515815260200191505060405180910390f35b34801561034057600080fd5b50610375600480360381019080803573ffffffffffffffffffffffffffffffffffffffff169060200190929190505050611764565b6040518082815260200191505060405180910390f35b34801561039757600080fd5b506103d6600480360381019080803573ffffffffffffffffffffffffffffffffffffffff16906020019092919080359060200190929190505050611856565b005b61040c600480360381019080803573ffffffffffffffffffffffffffffffffffffffff169060200190929190505050611b57565b005b600060149054906101000a900460ff1615156104b8576040517f08c379a00000000000000000000000000000000000000000000000000000000081526004018080602001828103825260258152602001807f436f6e74726163742069732063757272656e746c79206e6f74206f706572617481526020017f696f6e616c00000000000000000000000000000000000000000000000000000081525060400191505060405180910390fd5b678ac7230489e8000034141515610537576040517f08c379a00000000000000000000000000000000000000000000000000000000081526004018080602001828103825260128152602001807f45746865722073686f756c64206265203130000000000000000000000000000081525060200191505060405180910390fd5b600160003373ffffffffffffffffffffffffffffffffffffffff1673ffffffffffffffffffffffffffffffffffffffff16815260200190815260200160002060000160019054906101000a900460ff161515156105fc576040517f08c379a00000000000000000000000000000000000000000000000000000000081526004018080602001828103825260198152602001807f4169726c696e6520697320616c72656164792066756e6465640000000000000081525060200191505060405180910390fd5b60206040519081016040528034815250600460003373ffffffffffffffffffffffffffffffffffffffff1673ffffffffffffffffffffffffffffffffffffffff1681526020019081526020016000206000820151816000015590505060018060003373ffffffffffffffffffffffffffffffffffffffff1673ffffffffffffffffffffffffffffffffffffffff16815260200190815260200160002060000160016101000a81548160ff021916908315150217905550565b60008073ffffffffffffffffffffffffffffffffffffffff168273ffffffffffffffffffffffffffffffffffffffff1614151515610780576040517f08c379a00000000000000000000000000000000000000000000000000000000081526004018080602001828103825260228152602001807f276163636f756e7427206d75737420626520612076616c69642061646472657381526020017f732e00000000000000000000000000000000000000000000000000000000000081525060400191505060405180910390fd5b600160008373ffffffffffffffffffffffffffffffffffffffff1673ffffffffffffffffffffffffffffffffffffffff16815260200190815260200160002060000160009054906101000a900460ff169050919050565b6000809054906101000a900473ffffffffffffffffffffffffffffffffffffffff1673ffffffffffffffffffffffffffffffffffffffff163373ffffffffffffffffffffffffffffffffffffffff1614151561089b576040517f08c379a000000000000000000000000000000000000000000000000000000000815260040180806020018281038252601c8152602001807f43616c6c6572206973206e6f7420636f6e7472616374206f776e65720000000081525060200191505060405180910390fd5b80600060146101000a81548160ff02191690831515021790555050565b60008060149054906101000a900460ff161515610963576040517f08c379a00000000000000000000000000000000000000000000000000000000081526004018080602001828103825260258152602001807f436f6e74726163742069732063757272656e746c79206e6f74206f706572617481526020017f696f6e616c00000000000000000000000000000000000000000000000000000081525060400191505060405180910390fd5b6000600360003373ffffffffffffffffffffffffffffffffffffffff1673ffffffffffffffffffffffffffffffffffffffff16815260200190815260200160002054111515610a1a576040517f08c379a00000000000000000000000000000000000000000000000000000000081526004018080602001828103825260168152602001807f4e6f2062616c616e636520746f2077697468647261770000000000000000000081525060200191505060405180910390fd5b600360003373ffffffffffffffffffffffffffffffffffffffff1673ffffffffffffffffffffffffffffffffffffffff168152602001908152602001600020549050600360003373ffffffffffffffffffffffffffffffffffffffff1673ffffffffffffffffffffffffffffffffffffffff168152602001908152602001600020600090553373ffffffffffffffffffffffffffffffffffffffff166108fc829081150290604051600060405180830381858888f19350505050158015610ae5573d6000803e3d6000fd5b5050565b600080600060149054906101000a900460ff161515610b96576040517f08c379a00000000000000000000000000000000000000000000000000000000081526004018080602001828103825260258152602001807f436f6e74726163742069732063757272656e746c79206e6f74206f706572617481526020017f696f6e616c00000000000000000000000000000000000000000000000000000081525060400191505060405180910390fd5b600260008473ffffffffffffffffffffffffffffffffffffffff1673ffffffffffffffffffffffffffffffffffffffff16815260200190815260200160002060000160009054906101000a900473ffffffffffffffffffffffffffffffffffffffff16600260008573ffffffffffffffffffffffffffffffffffffffff1673ffffffffffffffffffffffffffffffffffffffff1681526020019081526020016000206001015491509150915091565b60008060008060149054906101000a900460ff161515610cf3576040517f08c379a00000000000000000000000000000000000000000000000000000000081526004018080602001828103825260258152602001807f436f6e74726163742069732063757272656e746c79206e6f74206f706572617481526020017f696f6e616c00000000000000000000000000000000000000000000000000000081525060400191505060405180910390fd5b600160008673ffffffffffffffffffffffffffffffffffffffff1673ffffffffffffffffffffffffffffffffffffffff16815260200190815260200160002060000160009054906101000a900460ff16151515610db8576040517f08c379a000000000000000000000000000000000000000000000000000000000815260040180806020018281038252601a8152602001807f6169726c696e6520616c7265616479207265676973746572656400000000000081525060200191505060405180910390fd5b600160003373ffffffffffffffffffffffffffffffffffffffff1673ffffffffffffffffffffffffffffffffffffffff16815260200190815260200160002060000160019054906101000a900460ff161515610e7c576040517f08c379a00000000000000000000000000000000000000000000000000000000081526004018080602001828103825260178152602001807f6169726c696e65206e6f74206f7065726174696f6e616c00000000000000000081525060200191505060405180910390fd5b600115158415151415611067576000925060019150600760003373ffffffffffffffffffffffffffffffffffffffff1673ffffffffffffffffffffffffffffffffffffffff16815260200190815260200160002060000160009054906101000a900460ff16925082151515610f59576040517f08c379a00000000000000000000000000000000000000000000000000000000081526004018080602001828103825260198152602001807f43616c6c65722068617320616c726561647920766f7465642e0000000000000081525060200191505060405180910390fd5b60206040519081016040528060011515815250600760003373ffffffffffffffffffffffffffffffffffffffff1673ffffffffffffffffffffffffffffffffffffffff16815260200190815260200160002060008201518160000160006101000a81548160ff021916908315150217905550905050600660008673ffffffffffffffffffffffffffffffffffffffff1673ffffffffffffffffffffffffffffffffffffffff1681526020019081526020016000205490506110238282611f2490919063ffffffff16565b600660008773ffffffffffffffffffffffffffffffffffffffff1673ffffffffffffffffffffffffffffffffffffffff168152602001908152602001600020819055505b6001600060156101000a81548160ff0219169083151502179055505050505050565b600080600080600060149054906101000a900460ff161515611139576040517f08c379a00000000000000000000000000000000000000000000000000000000081526004018080602001828103825260258152602001807f436f6e74726163742069732063757272656e746c79206e6f74206f706572617481526020017f696f6e616c00000000000000000000000000000000000000000000000000000081525060400191505060405180910390fd5b600160008673ffffffffffffffffffffffffffffffffffffffff1673ffffffffffffffffffffffffffffffffffffffff16815260200190815260200160002060000160009054906101000a900460ff161515156111fe576040517f08c379a000000000000000000000000000000000000000000000000000000000815260040180806020018281038252601d8152602001807f4169726c696e6520697320616c7265616479207265676973746572656400000081525060200191505060405180910390fd5b600160003373ffffffffffffffffffffffffffffffffffffffff1673ffffffffffffffffffffffffffffffffffffffff16815260200190815260200160002060000160019054906101000a900460ff1615156112e8576040517f08c379a00000000000000000000000000000000000000000000000000000000081526004018080602001828103825260218152602001807f43616c6c6572206169726c696e65206973206e6f74206f7065726174696f6e6181526020017f6c0000000000000000000000000000000000000000000000000000000000000081525060400191505060405180910390fd5b6005805490509150600482101561140c57604080519081016040528060011515815260200160001515815250600160008773ffffffffffffffffffffffffffffffffffffffff1673ffffffffffffffffffffffffffffffffffffffff16815260200190815260200160002060008201518160000160006101000a81548160ff02191690831515021790555060208201518160000160016101000a81548160ff02191690831515021790555090505060058590806001815401808255809150509060018203906000526020600020016000909192909190916101000a81548173ffffffffffffffffffffffffffffffffffffffff021916908373ffffffffffffffffffffffffffffffffffffffff160217905550506001600080905093509350611645565b600060159054906101000a900460ff161561163a57600660008673ffffffffffffffffffffffffffffffffffffffff1673ffffffffffffffffffffffffffffffffffffffff16815260200190815260200160002054905060028281151561146f57fe5b04811015156115e857604080519081016040528060011515815260200160001515815250600160008773ffffffffffffffffffffffffffffffffffffffff1673ffffffffffffffffffffffffffffffffffffffff16815260200190815260200160002060008201518160000160006101000a81548160ff02191690831515021790555060208201518160000160016101000a81548160ff02191690831515021790555090505060058590806001815401808255809150509060018203906000526020600020016000909192909190916101000a81548173ffffffffffffffffffffffffffffffffffffffff021916908373ffffffffffffffffffffffffffffffffffffffff1602179055505060008060156101000a81548160ff021916908315150217905550600660008673ffffffffffffffffffffffffffffffffffffffff1673ffffffffffffffffffffffffffffffffffffffff168152602001908152602001600020600090556001600080905093509350611645565b600660008673ffffffffffffffffffffffffffffffffffffffff1673ffffffffffffffffffffffffffffffffffffffff1681526020019081526020016000206000905560008080905093509350611645565b600080809050935093505b5050915091565b60008060149054906101000a900460ff1615156116f7576040517f08c379a00000000000000000000000000000000000000000000000000000000081526004018080602001828103825260258152602001807f436f6e74726163742069732063757272656e746c79206e6f74206f706572617481526020017f696f6e616c00000000000000000000000000000000000000000000000000000081525060400191505060405180910390fd5b600160008373ffffffffffffffffffffffffffffffffffffffff1673ffffffffffffffffffffffffffffffffffffffff16815260200190815260200160002060000160019054906101000a900460ff169050919050565b60008060149054906101000a900460ff16905090565b60008060149054906101000a900460ff16151561180f576040517f08c379a00000000000000000000000000000000000000000000000000000000081526004018080602001828103825260258152602001807f436f6e74726163742069732063757272656e746c79206e6f74206f706572617481526020017f696f6e616c00000000000000000000000000000000000000000000000000000081525060400191505060405180910390fd5b600360008373ffffffffffffffffffffffffffffffffffffffff1673ffffffffffffffffffffffffffffffffffffffff168152602001908152602001600020549050919050565b60008060149054906101000a900460ff161515611901576040517f08c379a00000000000000000000000000000000000000000000000000000000081526004018080602001828103825260258152602001807f436f6e74726163742069732063757272656e746c79206e6f74206f706572617481526020017f696f6e616c00000000000000000000000000000000000000000000000000000081525060400191505060405180910390fd5b61196a600261195c6003600260008873ffffffffffffffffffffffffffffffffffffffff1673ffffffffffffffffffffffffffffffffffffffff16815260200190815260200160002060010154611f4090919063ffffffff16565b611f7890919063ffffffff16565b90503373ffffffffffffffffffffffffffffffffffffffff16600260008573ffffffffffffffffffffffffffffffffffffffff1673ffffffffffffffffffffffffffffffffffffffff16815260200190815260200160002060000160009054906101000a900473ffffffffffffffffffffffffffffffffffffffff1673ffffffffffffffffffffffffffffffffffffffff16141515611a71576040517f08c379a00000000000000000000000000000000000000000000000000000000081526004018080602001828103825260188152602001807f50617373656e676572206973206e6f7420696e7375726564000000000000000081525060200191505060405180910390fd5b8181141515611b0e576040517f08c379a000000000000000000000000000000000000000000000000000000000815260040180806020018281038252602c8152602001807f54686520616d6f756e7420746f206265206372656469746564206973206e6f7481526020017f206173206573706563746564000000000000000000000000000000000000000081525060400191505060405180910390fd5b81600360003373ffffffffffffffffffffffffffffffffffffffff1673ffffffffffffffffffffffffffffffffffffffff16815260200190815260200160002081905550505050565b60008060149054906101000a900460ff161515611c02576040517f08c379a00000000000000000000000000000000000000000000000000000000081526004018080602001828103825260258152602001807f436f6e74726163742069732063757272656e746c79206e6f74206f706572617481526020017f696f6e616c00000000000000000000000000000000000000000000000000000081525060400191505060405180910390fd5b600160008373ffffffffffffffffffffffffffffffffffffffff1673ffffffffffffffffffffffffffffffffffffffff16815260200190815260200160002060000160019054906101000a900460ff161515611cec576040517f08c379a000000000000000000000000000000000000000000000000000000000815260040180806020018281038252603b8152602001807f4169726c696e6520796f752061726520627579696e6720696e737572616e636581526020017f2066726f6d2073686f756c64206265206f7065726174696f6e616c000000000081525060400191505060405180910390fd5b600034118015611d045750670de0b6b3a76400003411155b1515611dc4576040517f08c379a00000000000000000000000000000000000000000000000000000000081526004018080602001828103825260438152602001807f596f752063616e206e6f742062757920696e737572616e6365206f66206d6f7281526020017f65207468616e2031206574686572206f72206c657373207468616e203020657481526020017f686572000000000000000000000000000000000000000000000000000000000081525060600191505060405180910390fd5b60408051908101604052803373ffffffffffffffffffffffffffffffffffffffff16815260200134815250600260008473ffffffffffffffffffffffffffffffffffffffff1673ffffffffffffffffffffffffffffffffffffffff16815260200190815260200160002060008201518160000160006101000a81548173ffffffffffffffffffffffffffffffffffffffff021916908373ffffffffffffffffffffffffffffffffffffffff16021790555060208201518160010155905050600460008373ffffffffffffffffffffffffffffffffffffffff1673ffffffffffffffffffffffffffffffffffffffff168152602001908152602001600020600001549050611eda3482611f2490919063ffffffff16565b600460008473ffffffffffffffffffffffffffffffffffffffff1673ffffffffffffffffffffffffffffffffffffffff168152602001908152602001600020600001819055505050565b60008183019050828110151515611f3757fe5b80905092915050565b600080831415611f535760009050611f72565b8183029050818382811515611f6457fe5b04141515611f6e57fe5b8090505b92915050565b60008183811515611f8557fe5b049050929150505600a165627a7a72305820d0a071db11085956bcfd3dbcdb0724ed1d62c96b27bafc828d64f5126a293b020029",
  "source": "pragma solidity ^0.4.25;\n\nimport \"../node_modules/openzeppelin-solidity/contracts/math/SafeMath.sol\";\n\ncontract FlightSuretyData {\n    using SafeMath for uint256;\n\n    /********************************************************************************************/\n    /*                                       DATA VARIABLES                                     */\n    /********************************************************************************************/\n\n    struct Airlines {\n        bool isRegistered;\n        bool isOperational;\n    }\n\n    struct Insurance {\n        address passenger;\n        uint256 amount;\n\n    }\n    struct Fund {\n        uint256 amount;\n    }\n    struct Voters {\n        bool status;\n    }\n\n    address private contractOwner;                                      // Account used to deploy contract\n    bool private operational = true;                                    // Blocks all state changes throughout the contract if false\n     bool private vote_status = false;\n\n    mapping(address => Airlines) airlines;                             // mapping address to struct which holds registered airlines.\n    mapping(address => Insurance) insurance;                             // Airline address maps to struct\n    mapping(address => uint256) balances;\n    mapping(address => Fund) funds;\n    address[] multiCalls = new address[](0);\n    mapping(address => uint) private voteCount;\n    mapping(address => Voters) voters;\n\n    /********************************************************************************************/\n    /*                                       EVENT DEFINITIONS                                  */\n    /********************************************************************************************/\n\n\n    /**\n    * @dev Constructor\n    *      The deploying account becomes contractOwner\n    */\n    constructor\n                                (\n                                ) \n                                public \n    {\n        contractOwner = msg.sender;\n    }\n\n    /********************************************************************************************/\n    /*                                       FUNCTION MODIFIERS                                 */\n    /********************************************************************************************/\n\n    // Modifiers help avoid duplication of code. They are typically used to validate something\n    // before a function is allowed to be executed.\n\n    /**\n    * @dev Modifier that requires the \"operational\" boolean variable to be \"true\"\n    *      This is used on all state changing functions to pause the contract in \n    *      the event there is an issue that needs to be fixed\n    */\n    modifier requireIsOperational() \n    {\n        require(operational, \"Contract is currently not operational\");\n        _;  // All modifiers require an \"_\" which indicates where the function body will be added\n    }\n\n    /**\n    * @dev Modifier that requires the \"ContractOwner\" account to be the function caller\n    */\n    modifier requireContractOwner()\n    {\n        require(msg.sender == contractOwner, \"Caller is not contract owner\");\n        _;\n    }\n\n    /********************************************************************************************/\n    /*                                       UTILITY FUNCTIONS                                  */\n    /********************************************************************************************/\n\n    /**\n    * @dev Get operating status of contract\n    *\n    * @return A bool that is the current operating status\n    */      \n    function isOperational() \n                            public \n                            view \n                            returns(bool) \n    {\n        return operational;\n    }\n\n\n    /**\n    * @dev Sets contract operations on/off\n    *\n    * When operational mode is disabled, all write transactions except for this one will fail\n    */    \n    function setOperatingStatus\n                            (\n                                bool mode\n                            ) \n                            external\n                            requireContractOwner \n    {\n        operational = mode;\n    }\n\n    function getInsuredPassenger_amount(address airline) external requireIsOperational  returns(address, uint256){\n        return (insurance[airline].passenger,insurance[airline].amount);\n    }\n\n    function isAirline\n                            (\n                                address account\n                            )\n                            external\n\n                            returns(bool)\n    {\n        require(account != address(0), \"'account' must be a valid address.\");\n\n        return airlines[account].isRegistered;\n    }\n\n\n    function getAirlineOperatingStatus(address account) external requireIsOperational returns(bool){\n        return airlines[account].isOperational;\n    }\n\n    /********************************************************************************************/\n    /*                                     SMART CONTRACT FUNCTIONS                             */\n    /********************************************************************************************/\n\n   /**\n    * @dev Add an airline to the registration queue\n    *      Can only be called from FlightSuretyApp contract\n    *\n    */   \n    function registerAirline\n                            (\n                                address airline\n                            )\n                            external\n                            requireIsOperational\n                            returns(bool success, uint256 votes)\n    {\n        require(!airlines[airline].isRegistered, \"Airline is already registered\");\n        require(airlines[msg.sender].isOperational, \"Caller airline is not operational\");\n\n        uint multicall_Length = multiCalls.length;\n        if (multicall_Length < 4)\n        {\n            airlines[airline] = Airlines({\n            isRegistered: true,\n            isOperational: false\n            });\n            multiCalls.push(airline);\n            return(true,0);\n        }\n        else\n        {\n            if(vote_status)\n            {\n                uint voteCounts = voteCount[airline];\n                if(voteCounts >= multicall_Length/2)\n                {\n                    airlines[airline] = Airlines({\n                                                isRegistered: true,\n                                                isOperational: false\n                                                });\n                    multiCalls.push(airline);\n                    vote_status = false;\n                    delete voteCount[airline];\n                    return(true, 0);\n                }\n                else\n                {\n                    delete voteCount[airline];\n                    return(false, 0);\n                }\n            }\n            else\n            {\n                return(false,0);\n            }\n        }\n    }\n\n    function approveAirlineRegistration(address airline, bool airline_vote) public requireIsOperational {\n\n        require(!airlines[airline].isRegistered,\"airline already registered\");\n        require(airlines[msg.sender].isOperational,\"airline not operational\");\n\n        if(airline_vote == true){\n            bool isDuplicate = false;\n            uint incrementVote = 1;\n            isDuplicate = voters[msg.sender].status;\n            require(!isDuplicate, \"Caller has already voted.\");\n            voters[msg.sender] = Voters({\n                                            status: true\n                                        });\n            uint vote = voteCount[airline];\n            voteCount[airline] = vote.add(incrementVote);\n            }\n        vote_status = true;\n    }\n\n    function getUserCredit(address passenger) external requireIsOperational returns(uint256){\n        return balances[passenger];\n    }\n\n   /**\n    * @dev Buy insurance for a flight\n    *\n    */   \n    function buy\n                            (\n                                address airline\n                            )\n                            external\n                            payable\n                            requireIsOperational\n    {\n        require(airlines[airline].isOperational,\"Airline you are buying insurance from should be operational\");\n        require((msg.value > 0 ether) && (msg.value <= 1 ether), \"You can not buy insurance of more than 1 ether or less than 0 ether\");\n        insurance[airline] = Insurance({\n            passenger: msg.sender,\n            amount: msg.value\n        });\n        uint256 getFund = funds[airline].amount;\n        funds[airline].amount = getFund.add(msg.value);\n    }\n\n    /**\n     *  @dev Credits payouts to insurees\n    */\n    function creditInsurees\n                                (\n                                    address airline,\n                                    uint256 amount\n                                )\n                                external\n                                requireIsOperational\n    {\n        uint256 required_amount =insurance[airline].amount.mul(3).div(2);\n\n        require(insurance[airline].passenger == msg.sender, \"Passenger is not insured\");\n        require(required_amount == amount, \"The amount to be credited is not as espected\");\n        balances[msg.sender] = amount;\n    }\n    \n\n    /**\n     *  @dev Transfers eligible payout funds to insuree\n     *\n    */\n    function pay\n                            (\n                            )\n                            external\n                            requireIsOperational\n    {\n        require(balances[msg.sender] > 0, \"No balance to withdraw\");\n        uint256 withdraw_cash = balances[msg.sender];\n        delete balances[msg.sender];\n        msg.sender.transfer(withdraw_cash);\n\n    }\n\n   /**\n    * @dev Initial funding for the insurance. Unless there are too many delayed flights\n    *      resulting in insurance payouts, the contract should be self-sustaining\n    *\n    */   \n    function fund\n                            (   \n                            )\n                            public\n                            payable\n                            requireIsOperational\n    {\n        require(msg.value == 10 ether,\"Ether should be 10\");\n        require(!airlines[msg.sender].isOperational, \"Airline is already funded\");\n\n        funds[msg.sender] = Fund({\n            amount: msg.value\n        });\n\n        airlines[msg.sender].isOperational = true;\n    }\n\n    function getFlightKey\n                        (\n                            address airline,\n                            string memory flight,\n                            uint256 timestamp\n                        )\n                        pure\n                        internal\n                        returns(bytes32) \n    {\n        return keccak256(abi.encodePacked(airline, flight, timestamp));\n    }\n\n    /**\n    * @dev Fallback function for funding smart contract.\n    *\n    */\n    function() \n                            external \n                            payable \n    {\n        fund();\n    }\n\n\n}\n\n",
  "sourcePath": "/Users/monika.singh/Downloads/FlightSurety-master/contracts/FlightSuretyData.sol",
  "compiler": {
    "name": "solc",
    "version": "0.4.26+commit.4563c3fc.Emscripten.clang"
  },
  "schemaVersion": "3.0.23",
  "updatedAt": "2020-04-20T16:47:13.638Z",
  "networkType": "ethereum",
  "devdoc": {
    "methods": {
      "buy(address)": {
        "details": "Buy insurance for a flight    "
      },
      "creditInsurees(address,uint256)": {
        "details": "Credits payouts to insurees"
      },
      "fund()": {
        "details": "Initial funding for the insurance. Unless there are too many delayed flights     resulting in insurance payouts, the contract should be self-sustaining    "
      },
      "isOperational()": {
        "details": "Get operating status of contract",
        "return": "A bool that is the current operating status"
      },
      "pay()": {
        "details": "Transfers eligible payout funds to insuree    "
      },
      "registerAirline(address)": {
        "details": "Add an airline to the registration queue     Can only be called from FlightSuretyApp contract    "
      },
      "setOperatingStatus(bool)": {
        "details": "Sets contract operations on/off    * When operational mode is disabled, all write transactions except for this one will fail"
      }
    }
  },
  "userdoc": {
    "methods": {}
  }
}